{"abi":[{"type":"constructor","inputs":[{"name":"maxBalance_","type":"uint256","internalType":"uint256"},{"name":"admin_","type":"address","internalType":"address"}],"stateMutability":"nonpayable"},{"type":"function","name":"admin","inputs":[],"outputs":[{"name":"","type":"address","internalType":"address"}],"stateMutability":"view"},{"type":"function","name":"bankActive","inputs":[],"outputs":[{"name":"","type":"bool","internalType":"bool"}],"stateMutability":"view"},{"type":"function","name":"changeComision","inputs":[{"name":"newComision_","type":"uint256","internalType":"uint256"}],"outputs":[],"stateMutability":"nonpayable"},{"type":"function","name":"depositEther","inputs":[],"outputs":[],"stateMutability":"payable"},{"type":"function","name":"disableBank","inputs":[],"outputs":[],"stateMutability":"nonpayable"},{"type":"function","name":"enableBank","inputs":[],"outputs":[],"stateMutability":"nonpayable"},{"type":"function","name":"maxBalance","inputs":[],"outputs":[{"name":"","type":"uint256","internalType":"uint256"}],"stateMutability":"view"},{"type":"function","name":"modifyMaxBalance","inputs":[{"name":"newMaxBalance_","type":"uint256","internalType":"uint256"}],"outputs":[],"stateMutability":"nonpayable"},{"type":"function","name":"userBalance","inputs":[{"name":"","type":"address","internalType":"address"}],"outputs":[{"name":"","type":"uint256","internalType":"uint256"}],"stateMutability":"view"},{"type":"function","name":"withDrawBankBalance","inputs":[],"outputs":[],"stateMutability":"nonpayable"},{"type":"function","name":"withDrawEther","inputs":[{"name":"amount_","type":"uint256","internalType":"uint256"}],"outputs":[],"stateMutability":"nonpayable"},{"type":"event","name":"BankBalanceWithDraw","inputs":[{"name":"totalComisionExtracted","type":"uint256","indexed":false,"internalType":"uint256"}],"anonymous":false},{"type":"event","name":"ChangeComision","inputs":[{"name":"nuevaComision","type":"uint256","indexed":false,"internalType":"uint256"}],"anonymous":false},{"type":"event","name":"EtherDeposit","inputs":[{"name":"user","type":"address","indexed":false,"internalType":"address"},{"name":"amount","type":"uint256","indexed":false,"internalType":"uint256"},{"name":"comision","type":"uint256","indexed":false,"internalType":"uint256"}],"anonymous":false},{"type":"event","name":"EtherWithDraw","inputs":[{"name":"user","type":"address","indexed":false,"internalType":"address"},{"name":"amount","type":"uint256","indexed":false,"internalType":"uint256"},{"name":"comision","type":"uint256","indexed":false,"internalType":"uint256"}],"anonymous":false}],"bytecode":{"object":"0x6080604052600160045f6101000a81548160ff0219169083151502179055503480156200002a575f80fd5b50604051620013a2380380620013a283398181016040528101906200005091906200013c565b8060025f6101000a81548173ffffffffffffffffffffffffffffffffffffffff021916908373ffffffffffffffffffffffffffffffffffffffff16021790555081600181905550505062000181565b5f80fd5b5f819050919050565b620000b781620000a3565b8114620000c2575f80fd5b50565b5f81519050620000d581620000ac565b92915050565b5f73ffffffffffffffffffffffffffffffffffffffff82169050919050565b5f6200010682620000db565b9050919050565b6200011881620000fa565b811462000123575f80fd5b50565b5f8151905062000136816200010d565b92915050565b5f80604083850312156200015557620001546200009f565b5b5f6200016485828601620000c5565b9250506020620001778582860162000126565b9150509250929050565b611213806200018f5f395ff3fe60806040526004361061009b575f3560e01c80638d0b8087116100635780638d0b80871461015b57806398ea5fca14610171578063a2ccd6ba1461017b578063b34a31e7146101a3578063caad5b18146101cb578063f851a440146101f35761009b565b80630103c92b1461009f5780631f32c2f1146100db5780634f3bda29146100f1578063624b7e7a1461011b57806373ad468a14610131575b5f80fd5b3480156100aa575f80fd5b506100c560048036038101906100c09190610b8e565b61021d565b6040516100d29190610bd1565b60405180910390f35b3480156100e6575f80fd5b506100ef610232565b005b3480156100fc575f80fd5b506101056102dc565b6040516101129190610c04565b60405180910390f35b348015610126575f80fd5b5061012f6102ee565b005b34801561013c575f80fd5b50610145610399565b6040516101529190610bd1565b60405180910390f35b348015610166575f80fd5b5061016f61039f565b005b61017961055f565b005b348015610186575f80fd5b506101a1600480360381019061019c9190610c47565b61070f565b005b3480156101ae575f80fd5b506101c960048036038101906101c49190610c47565b6107a8565b005b3480156101d6575f80fd5b506101f160048036038101906101ec9190610c47565b6108be565b005b3480156101fe575f80fd5b50610207610b0b565b6040516102149190610c81565b60405180910390f35b6003602052805f5260405f205f915090505481565b60025f9054906101000a900473ffffffffffffffffffffffffffffffffffffffff1673ffffffffffffffffffffffffffffffffffffffff163373ffffffffffffffffffffffffffffffffffffffff16146102c1576040517f08c379a00000000000000000000000000000000000000000000000000000000081526004016102b890610cf4565b60405180910390fd5b5f60045f6101000a81548160ff021916908315150217905550565b60045f9054906101000a900460ff1681565b60025f9054906101000a900473ffffffffffffffffffffffffffffffffffffffff1673ffffffffffffffffffffffffffffffffffffffff163373ffffffffffffffffffffffffffffffffffffffff161461037d576040517f08c379a000000000000000000000000000000000000000000000000000000000815260040161037490610cf4565b60405180910390fd5b600160045f6101000a81548160ff021916908315150217905550565b60015481565b60025f9054906101000a900473ffffffffffffffffffffffffffffffffffffffff1673ffffffffffffffffffffffffffffffffffffffff163373ffffffffffffffffffffffffffffffffffffffff161461042e576040517f08c379a000000000000000000000000000000000000000000000000000000000815260040161042590610cf4565b60405180910390fd5b5f805411610471576040517f08c379a000000000000000000000000000000000000000000000000000000000815260040161046890610d5c565b60405180910390fd5b5f805490505f80819055505f3373ffffffffffffffffffffffffffffffffffffffff16826040516104a190610da7565b5f6040518083038185875af1925050503d805f81146104db576040519150601f19603f3d011682016040523d82523d5f602084013e6104e0565b606091505b5050905080610524576040517f08c379a000000000000000000000000000000000000000000000000000000000815260040161051b90610e2b565b60405180910390fd5b7f30c95fc9911bce442b20990594a7ccfd2c76be2b15cc4678f615f9e0786ebffa826040516105539190610bd1565b60405180910390a15050565b60045f9054906101000a900460ff166105ad576040517f08c379a00000000000000000000000000000000000000000000000000000000081526004016105a490610e93565b60405180910390fd5b6001543460035f3373ffffffffffffffffffffffffffffffffffffffff1673ffffffffffffffffffffffffffffffffffffffff1681526020019081526020015f20546105f99190610ede565b111561063a576040517f08c379a000000000000000000000000000000000000000000000000000000000815260040161063190610f5b565b60405180910390fd5b5f60646005543461064b9190610f79565b6106559190610fe7565b90505f81346106649190611017565b9050815f808282546106769190610ede565b925050819055508060035f3373ffffffffffffffffffffffffffffffffffffffff1673ffffffffffffffffffffffffffffffffffffffff1681526020019081526020015f205f8282546106c99190610ede565b925050819055507fd2c7327eeef800b4658eb3cf547280a7aeddf27084024215a8613a19b6a6146e3382846040516107039392919061104a565b60405180910390a15050565b60025f9054906101000a900473ffffffffffffffffffffffffffffffffffffffff1673ffffffffffffffffffffffffffffffffffffffff163373ffffffffffffffffffffffffffffffffffffffff161461079e576040517f08c379a000000000000000000000000000000000000000000000000000000000815260040161079590610cf4565b60405180910390fd5b8060018190555050565b60025f9054906101000a900473ffffffffffffffffffffffffffffffffffffffff1673ffffffffffffffffffffffffffffffffffffffff163373ffffffffffffffffffffffffffffffffffffffff1614610837576040517f08c379a000000000000000000000000000000000000000000000000000000000815260040161082e90610cf4565b60405180910390fd5b600a81111561087b576040517f08c379a0000000000000000000000000000000000000000000000000000000008152600401610872906110ef565b60405180910390fd5b806005819055507fea56a4af673a3d4e9a67c7d61b7bbf4a4d689637f5dc7b5e959efe1394dbc5916005546040516108b39190610bd1565b60405180910390a150565b60045f9054906101000a900460ff1661090c576040517f08c379a000000000000000000000000000000000000000000000000000000000815260040161090390610e93565b60405180910390fd5b60035f3373ffffffffffffffffffffffffffffffffffffffff1673ffffffffffffffffffffffffffffffffffffffff1681526020019081526020015f205481111561098c576040517f08c379a000000000000000000000000000000000000000000000000000000000815260040161098390611157565b60405180910390fd5b5f60646005548361099d9190610f79565b6109a79190610fe7565b90505f81836109b69190611017565b90508260035f3373ffffffffffffffffffffffffffffffffffffffff1673ffffffffffffffffffffffffffffffffffffffff1681526020019081526020015f205f828254610a049190611017565b92505081905550815f80828254610a1b9190610ede565b925050819055505f3373ffffffffffffffffffffffffffffffffffffffff1682604051610a4790610da7565b5f6040518083038185875af1925050503d805f8114610a81576040519150601f19603f3d011682016040523d82523d5f602084013e610a86565b606091505b5050905080610aca576040517f08c379a0000000000000000000000000000000000000000000000000000000008152600401610ac1906111bf565b60405180910390fd5b7ffec9851106cb61092ddd5485229469367be044ad2569b0ed6f255d61a8d66c42338385604051610afd9392919061104a565b60405180910390a150505050565b60025f9054906101000a900473ffffffffffffffffffffffffffffffffffffffff1681565b5f80fd5b5f73ffffffffffffffffffffffffffffffffffffffff82169050919050565b5f610b5d82610b34565b9050919050565b610b6d81610b53565b8114610b77575f80fd5b50565b5f81359050610b8881610b64565b92915050565b5f60208284031215610ba357610ba2610b30565b5b5f610bb084828501610b7a565b91505092915050565b5f819050919050565b610bcb81610bb9565b82525050565b5f602082019050610be45f830184610bc2565b92915050565b5f8115159050919050565b610bfe81610bea565b82525050565b5f602082019050610c175f830184610bf5565b92915050565b610c2681610bb9565b8114610c30575f80fd5b50565b5f81359050610c4181610c1d565b92915050565b5f60208284031215610c5c57610c5b610b30565b5b5f610c6984828501610c33565b91505092915050565b610c7b81610b53565b82525050565b5f602082019050610c945f830184610c72565b92915050565b5f82825260208201905092915050565b7f596f7520617265206e6f7420616c6c6f776564000000000000000000000000005f82015250565b5f610cde601383610c9a565b9150610ce982610caa565b602082019050919050565b5f6020820190508181035f830152610d0b81610cd2565b9050919050565b7f5468652042616e6b2042616c616e6365206973203000000000000000000000005f82015250565b5f610d46601583610c9a565b9150610d5182610d12565b602082019050919050565b5f6020820190508181035f830152610d7381610d3a565b9050919050565b5f81905092915050565b50565b5f610d925f83610d7a565b9150610d9d82610d84565b5f82019050919050565b5f610db182610d87565b9150819050919050565b7f576974686472617720636f6d6973696f6e732066726f6d2062616e6b206661695f8201527f6c65640000000000000000000000000000000000000000000000000000000000602082015250565b5f610e15602383610c9a565b9150610e2082610dbb565b604082019050919050565b5f6020820190508181035f830152610e4281610e09565b9050919050565b7f5468652062616e6b2069732064697361626c65640000000000000000000000005f82015250565b5f610e7d601483610c9a565b9150610e8882610e49565b602082019050919050565b5f6020820190508181035f830152610eaa81610e71565b9050919050565b7f4e487b71000000000000000000000000000000000000000000000000000000005f52601160045260245ffd5b5f610ee882610bb9565b9150610ef383610bb9565b9250828201905080821115610f0b57610f0a610eb1565b5b92915050565b7f4d617842616c616e6365205265616368656400000000000000000000000000005f82015250565b5f610f45601283610c9a565b9150610f5082610f11565b602082019050919050565b5f6020820190508181035f830152610f7281610f39565b9050919050565b5f610f8382610bb9565b9150610f8e83610bb9565b9250828202610f9c81610bb9565b91508282048414831517610fb357610fb2610eb1565b5b5092915050565b7f4e487b71000000000000000000000000000000000000000000000000000000005f52601260045260245ffd5b5f610ff182610bb9565b9150610ffc83610bb9565b92508261100c5761100b610fba565b5b828204905092915050565b5f61102182610bb9565b915061102c83610bb9565b925082820390508181111561104457611043610eb1565b5b92915050565b5f60608201905061105d5f830186610c72565b61106a6020830185610bc2565b6110776040830184610bc2565b949350505050565b7f546865206e657720636f6d6973696f6e206973207665727920686967682e204d5f8201527f757374206265206c6f776572207468616e203130250000000000000000000000602082015250565b5f6110d9603583610c9a565b91506110e48261107f565b604082019050919050565b5f6020820190508181035f830152611106816110cd565b9050919050565b7f4e6f7420656e6f756768202045746865720000000000000000000000000000005f82015250565b5f611141601183610c9a565b915061114c8261110d565b602082019050919050565b5f6020820190508181035f83015261116e81611135565b9050919050565b7f5472616e7366657220746f2075736572206661696c65640000000000000000005f82015250565b5f6111a9601783610c9a565b91506111b482611175565b602082019050919050565b5f6020820190508181035f8301526111d68161119d565b905091905056fea26469706673582212202b566a378037fcc633caddfe41d37710ba1a7118c6d666fc0a96a60525e57fb564736f6c63430008180033","linkReferences":{}},"methodIdentifiers":{"admin()":"f851a440","bankActive()":"4f3bda29","changeComision(uint256)":"b34a31e7","depositEther()":"98ea5fca","disableBank()":"1f32c2f1","enableBank()":"624b7e7a","maxBalance()":"73ad468a","modifyMaxBalance(uint256)":"a2ccd6ba","userBalance(address)":"0103c92b","withDrawBankBalance()":"8d0b8087","withDrawEther(uint256)":"caad5b18"},"storageLayout":{"storage":[{"astId":3,"contract":"src/CryptoBankV2.sol:CryptoBankV2","label":"bankBalance","offset":0,"slot":"0","type":"t_uint256"},{"astId":5,"contract":"src/CryptoBankV2.sol:CryptoBankV2","label":"maxBalance","offset":0,"slot":"1","type":"t_uint256"},{"astId":7,"contract":"src/CryptoBankV2.sol:CryptoBankV2","label":"admin","offset":0,"slot":"2","type":"t_address"},{"astId":11,"contract":"src/CryptoBankV2.sol:CryptoBankV2","label":"userBalance","offset":0,"slot":"3","type":"t_mapping(t_address,t_uint256)"},{"astId":14,"contract":"src/CryptoBankV2.sol:CryptoBankV2","label":"bankActive","offset":0,"slot":"4","type":"t_bool"},{"astId":16,"contract":"src/CryptoBankV2.sol:CryptoBankV2","label":"comision","offset":0,"slot":"5","type":"t_uint256"}],"types":{"t_address":{"encoding":"inplace","label":"address","numberOfBytes":"20"},"t_bool":{"encoding":"inplace","label":"bool","numberOfBytes":"1"},"t_mapping(t_address,t_uint256)":{"encoding":"mapping","key":"t_address","label":"mapping(address => uint256)","numberOfBytes":"32","value":"t_uint256"},"t_uint256":{"encoding":"inplace","label":"uint256","numberOfBytes":"32"}}},"id":0}